:100000000C94DE010C9406020C9406020C94060279
:100010000C9406020C9406020C9406020C94060240
:100020000C9406020C9406020C94CB040C943D052F
:100030000C9406020C9406020C9406020C94060220
:100040000C9406020C9406020C9406020C94060210
:100050000C9406020C9406020C9406020C94720B8B
:100060000C9406020C94B1080C948B080C940602B4
:100070000C9406020C9406020C9406020C940602E0
:100080000C9406020C9406020C9406020C940602D0
:100090000C9406020C9406020C9406020C940602C0
:1000A0000C9406020C9406020C9406021509180919
:1000B00007090B0911093909390939091C092009EE
:1000C00024092A092E093909340900407A10F35A03
:1000D00000A0724E18090010A5D4E80000E8764888
:1000E000170000E40B54020000CA9A3B000000E134
:1000F000F505000080969800000040420F000000C7
:10010000A08601000000102700000000E8030000A6
:1001100000006400000000000A0000000000010070
:10012000000000002C76D888DC674F0823DFC1DF91
:10013000AE59E1B1B796E5E3E453C63AE651997694
:1001400096E8E6C28426EB898C9B62ED407C6FFCCE
:10015000EFBC9C9F40F2BAA56FA5F490055A2AF710
:100160005C936B6CF9676DC11BFCE0E40D47FEF519
:1001700020E6B500D0ED902E030094357705008081
:10018000841E080000204E0A000000C80C333333E0
:10019000330F986E12831141EF8D2114893BE65580
:1001A00016CFFEE6DB18D1844B381BF77C1D901D63
:1001B000A4BBE424203284725E228100C9F124ECC5
:1001C000A1E53D27080B000202020100090400001E
:1001D00001020200000524001001052401010104B0
:1001E00024020605240600010705810310004009CA
:1001F000040100020A000000070502024000000797
:100200000583024000000403090412010002EF020A
:1002100001404123418000010102030141726475E4
:10022000696E6F204C4C430041726475696E6F209B
:1002300059756E00302E302E302E30003132372E70
:10024000302E302E310000000000240027002A004C
:100250002D00300000000000250028002B002E009B
:100260003100000000002300260029002C002F0090
:10027000040404040403040502020202040302024B
:10028000020206060606060604040202020404042C
:100290000802011040804010204080408008020485
:1002A00001804020100201108010204040200000FA
:1002B000000200090F0000030401000C0000000010
:1002C0000000000000000000000000000072756ED9
:1002D0002D6272696467650A000A000A004C617346
:1002E000742072656164696E67202D3E200045733D
:1002F0007461626C6973686564206E6577206C6FE9
:10030000772068756D6964697479207468726573A3
:10031000686F6C64202D3E200045737461626C69C7
:1003200073686564206E6577206C6F772074656DE7
:100330007065726174757265207468726573686F38
:100340006C64202D3E200045737461626C69736893
:100350006564206E657720686967682068756D69D7
:1003600064697479207468726573686F6C64202D99
:100370003E200045737461626C6973686564206E29
:10038000657720686967682074656D70657261744F
:10039000757265207468726573686F6C64202D3E99
:1003A000200043616C6C206E6F7420696D706C6509
:1003B0006D656E74656400007C1F471D11241FBEAF
:1003C000CFEFDAE0DEBFCDBF26E0A4E9B4E001C0A4
:1003D0001D92AC30B207E1F714E0A0E0B1E0EAE32F
:1003E000F0E502C005900D92A439B107D9F711E0EC
:1003F000CDEDD1E004C02197FE010E94EA25CC3D5D
:10040000D107C9F70E944F1D0C9410280C940000CE
:100410004091960450919704209194043091950452
:1004200042175307B4F49091E8009570E1F390916E
:10043000E80092FD19C08093F1008091960490919C
:10044000970401968F739927892B19F48EEF809367
:10045000E8008091960490919704019690939704F8
:100460008093960481E0089580E00895CF92DF9212
:10047000EF92FF920F931F93CF93DF931F92CDB70D
:10048000DEB7182F062FE42E862F880F8E5F9983F4
:100490000E94080283E00E940802F12EC12E998179
:1004A000D92E8C2D8F19801798F4F601E7FE02C023
:1004B000849101C080810E940802182F80E00E9470
:1004C00008028123FFEFCF1ADF0A8111EACF01C0B2
:1004D00081E00F90DF91CF911F910F91FF90EF90EE
:1004E000DF90CF900895DF92EF92FF920F931F93CA
:1004F000CF93DF93D82E8A017B01E40EF51EEB012A
:10050000CE15DF0571F0D7FE03C0FE01849101C056
:1005100088810E94080221968111F2CF8FEF9FEF10
:1005200001C0C801DF91CF911F910F91FF90EF9013
:10053000DF900895615030F02091F100FC0120839C
:100540000196F8CF289884E68093A5040895CF9269
:10055000DF92EF92FF920F931F93CF93DF936C0183
:100560007A018B01C0E0D0E0CE15DF0589F0D8011B
:100570006D918D01D601ED91FC910190F081E02DFE
:10058000C6010995892B11F47E0102C02196ECCF9A
:10059000C701DF91CF911F910F91FF90EF90DF90F6
:1005A000CF900895FC01538D448D252F30E0842F8A
:1005B00090E0821B930B541710F0CF96089501978B
:1005C0000895FC01918D828D981761F0828DDF0175
:1005D000A80FB11D5D968C91928D9F5F9F73928F36
:1005E00090E008958FEF9FEF0895FC01918D828D2B
:1005F000981731F0828DE80FF11D858D90E00895F8
:100600008FEF9FEF0895FC01918D228D892F90E04F
:10061000805C9F4F821B91098F73992708958CE00E
:1006200095E00E94030321E0892B09F420E0822F4A
:100630000895FC01848DDF01A80FB11DA35ABF4F9F
:100640002C91848D90E001968F739927848FA689D1
:10065000B7892C93A089B1898C9180648C93938DF8
:10066000848D981306C00288F389E02D80818F7DE8
:1006700080830895EF92FF920F931F93CF93DF93A0
:10068000EC0181E0888F9B8D8C8D981305C0E889E3
:10069000F989808185FD24C0F62E0B8D10E00F5F57
:1006A0001F4F0F731127E02E8C8DE8120CC00FB670
:1006B00007FCFACFE889F989808185FFF5CFCE0163
:1006C0000E941903F1CF8B8DFE01E80FF11DE35A53
:1006D000FF4FF0820B8FEA89FB898081806207C01F
:1006E000EE89FF896083E889F9898081806480834D
:1006F00081E090E0DF91CF911F910F91FF90EF90FB
:100700000895CF93DF93EC01888D8823C9F0EA899F
:10071000FB89808185FD05C0A889B9898C9186FDFA
:100720000FC00FB607FCF5CF808185FFF2CFA889F7
:10073000B9898C9185FFEDCFCE010E941903E7CFD7
:10074000DF91CF91089580E090E0892B29F00E94FD
:100750000F0381110C9400000895CF93DF931F9233
:10076000CDB7DEB76983DC01ED91FC910280F381A6
:10077000E02D41E050E0BE016F5F7F4F09950F9083
:10078000DF91CF91089583E08093E9008091F2009A
:10079000882319F08AE38093E80008950F931F934C
:1007A000CF93DF931F92CDB7DEB782E0898342E417
:1007B00050E064EC71E080E80E9473020E94131222
:1007C000DC0112960D911C9113970115110569F02A
:1007D000D801ED91FC910280F381E02DBE016F5FA5
:1007E0007F4FC801099597FF07C089810F90DF915E
:1007F000CF911F910F910895F80100851185E5CFE4
:100800008F929F92AF92BF92CF92DF92EF92FF9220
:100810000F931F93CF93DF935C016B017A0180915B
:100820000B01882309F45BC08091A604882309F496
:1008300056C08091A30480FF05C08091E0008260D3
:100840008093E000E70110E00AEF83E0882E9AE34E
:10085000992E2097D9F10E94021281110AC00150ED
:1008600009F43DC061E070E080E090E00E942C0B54
:10087000F0CF282F30E0C217D3070CF48C2F4FB7DE
:10088000F8948092E9009091E80095FF1DC0282F10
:1008900030E0C21BD30BF601982F915020F08191CC
:1008A0008093F100FACFC20ED31E112319F090925B
:1008B000E80009C08091E80085FD06C09092E8003C
:1008C00011E0209709F010E04FBFC3CF1111C3CF43
:1008D0005D9884E6809398041E141F0444F081E020
:1008E00090E0F5019383828380E090E001C0C7012E
:1008F000DF91CF911F910F91FF90EF90DF90CF90FC
:10090000BF90AF909F908F9008950E94021290E048
:100910000895CF93DF931F92CDB7DEB7FC01848596
:10092000958597FD05C02FEF3FEF358724870BC0D6
:10093000CE0101960E94D811019719F4898190E0A7
:1009400002C08FEF9FEF0F90DF91CF9108950F932B
:100950001F93CF93DF931F92CDB7DEB78C01FC01BD
:100960008485958597FF0EC0CE0101960E94D8110F
:10097000019719F4298130E002C02FEF3FEFF80111
:1009800035872487F801848595850F90DF91CF9175
:100990001F910F9108951F920F920FB60F9211247D
:1009A0008F939F938091E1009091E100937F9093CA
:1009B000E10083FF0FC01092E90091E09093EB00FB
:1009C0001092EC0092E39093ED001092A60498E050
:1009D0009093F00082FF20C093E09093E900909103
:1009E000F200992319F09AE39093E800909198040B
:1009F000992339F0909198049150909398049923F9
:100A000089F19091A504992339F09091A504915012
:100A10009093A504992341F184FF10C08091E200D6
:100A20008E7E81608093E2008091E1008F7E8093D2
:100A3000E1008091A3048E7E806111C080FF16C00A
:100A40008091E2008E7E80618093E2008091E100DF
:100A50008E7E8093E1008091A3048E7E81608093DE
:100A6000A30404C05D9ACDCF289AD6CF9F918F91D1
:100A70000F900FBE0F901F9018951F920F920FB6F8
:100A80000F921124CF92DF92EF92FF920F931F9358
:100A90002F933F934F935F936F937F938F939F9386
:100AA000AF93BF93EF93FF93CF93DF93CDB7DEB7B1
:100AB0006C97DEBFCDBF1092E9008091E80083FF04
:100AC000EDC168E0CE0145960E949A0282EF8093C4
:100AD000E8008D8987FF05C09091E80090FFFCCF6A
:100AE00003C09EEF9093E800982F907609F0C6C05F
:100AF0009E892F89188D91110CC0803829F480911E
:100B0000A4048093F10002C01092F1001092F10051
:100B100048C1422F50E0512B913051F4811141C115
:100B20004130510509F03DC18091A4048D7F0BC077
:100B3000933061F4811135C14130510509F031C163
:100B40008091A40482608093A4042BC1953041F469
:100B50008091E80080FFFCCF20682093E30021C152
:100B6000963009F05FC0EB8CFC8C1092E90010927B
:100B7000970410929604123091F5109295041092F9
:100B800094040E94CE0399E0BE016F5F7F4FDB01AA
:100B9000E92F1D92EA95E9F799831A8391E09E83E4
:100BA00090EA98879AEF998720919604309197045C
:100BB000275F3F4F3C832B838D831092E900109277
:100BC000970410929604F0929504E092940449E000
:100BD00050E080E00E9473020E94CE03E2C0F092D7
:100BE0009504E09294040E941312DC011296ED9099
:100BF000FC901397E114F10409F4C0C0D701ED9102
:100C0000FC910480F581E02DBE016B5E7F4FC70132
:100C10000995009719F00CF0C4C0C7C0F701E08433
:100C2000F184E8CF973009F4C0C0983021F481E016
:100C30008093F100B6C0993009F0B3C0837009F019
:100C4000B4C0E3E2F1E081E021E036E39081992352
:100C500061F08093E9002093EB0091919093EC0078
:100C60003093ED008F5F873089F78EE78093EA003D
:100C70001092EA008F898093A60493C08B8D9C8D7F
:100C80001092E900109297041092960490939504A4
:100C900080939404898D811156C08E899D89913AE3
:100CA00059F4813209F081C047E050E064E071E01E
:100CB00080E00E94730275C0913209F076C08332E1
:100CC00089F4888D90E0982F88272F89822BA0E0C7
:100CD000B0E08093000190930101A0930201B093D2
:100CE00003015FC0803269F48091E80082FFFCCF8D
:100CF00067E084E091E00E949A028BEF8093E80025
:100D000006C0823209F04DC08F8980930B0180911B
:100D1000A204882319F0EEEFFAE002C0E0E0F8E068
:100D20008091040190910501A0910601B091070105
:100D3000803B9440A105B10509F07BC080910B0177
:100D400080FF93C076C00E941312DC0112960D91B1
:100D50001C9113970115110541F1D801ED91FC91FA
:100D60000190F081E02DBE016B5E7F4FC8010995B7
:100D7000811117C0F80100851185ECCF113009F4FD
:100D80004EC0133091F48F89882309F445C0823016
:100D900081F440E86BE088E292E00E94360288230A
:100DA00021F08EEF8093E80079C081E28093EB0020
:100DB00075C0813029F440E86BE08CE192E0EDCF22
:100DC000833099F70E941312DC011296ED90FC908B
:100DD00013978E010F5F1F4F6801E114F10479F042
:100DE000D701ED91FC910680F781E02DB801C70194
:100DF0000995080F111DF701E084F184EECFD801A9
:100E00001C92F60101900020E9F73197BF016C199F
:100E10007D0940E0C601C1CF66E072E002C06AE031
:100E200072E06115710509F2FB01449150E080E820
:100E300040CF0FB6F894A8958091600088618093A8
:100E40006000109260000FBEA895EE3F2AE0F20706
:100E500039F08091FE0A9091FF0A91838083A1CF9F
:100E60001092FF0A1092FE0A9CCFEE3F8AE0F8072C
:100E700031F0808191819093FF0A8093FE0A87E789
:100E800097E7918380839BE088E10FB6F894A8955B
:100E9000809360000FBE9093600083CF6C960FB676
:100EA000F894DEBF0FBECDBFDF91CF91FF91EF91E0
:100EB000BF91AF919F918F917F916F915F914F9172
:100EC0003F912F911F910F91FF90EF90DF90CF9066
:100ED0000F900FBE0F901F9018950F931F93CF93F5
:100EE000DF93EC010E94660B688779878A879B876E
:100EF000E881F9810284F385E02DCE01099597FF01
:100F000017C00E94660B088519852A853B85DC0180
:100F1000CB01801B910BA20BB30B0C811D812E8189
:100F20003F8180179107A207B30710F38FEF9FEF60
:100F3000DF91CF911F910F910895DC01ED91FC910C
:100F40000190F081E02D0994EF92FF920F931F938F
:100F5000CF93DF938C017B01C0E0D0E0F701EC0F71
:100F6000FD1F6491662361F0D801ED91FC91019021
:100F7000F081E02DC8010995892B11F02196EECF63
:100F8000CE01DF91CF911F910F91FF90EF900895C7
:100F90006115710579F0FB0101900020E9F73197A7
:100FA000AF01461B570BDC01ED91FC910280F381F0
:100FB000E02D099480E090E008954F925F926F9247
:100FC0007F92EF92FF920F931F93CF93DF93CDB752
:100FD000DEB7A1970FB6F894DEBF0FBECDBF7C0180
:100FE000FA01CB0119A2223008F42AE08E010F5D2C
:100FF0001F4F422E512C612C712CBF01A301920175
:101000000E94C825F901CA01015011096A3014F47F
:10101000605D01C0695CD8016C93232B242B252BC8
:1010200061F7B801C7010E94C807A1960FB6F894EE
:10103000DEBF0FBECDBFDF91CF911F910F91FF900B
:10104000EF907F906F905F904F9008958F929F9256
:10105000AF92BF92CF92DF92EF92FF920F931F93C6
:10106000CF93DF937C018B016C0182E0C80ED11C11
:101070004701E5E08E0E911CC0E0D0E0F601419101
:101080006F0150E060E070E02AE0C8010E94DD07D7
:101090005C016EE2C8010E949D078A0D9B1DC80F6E
:1010A000D91FC814D90451F7F701458150E060E019
:1010B00070E02AE0C8010E94DD078C0F9D1FDF91C0
:1010C000CF911F910F91FF90EF90DF90CF90BF9045
:1010D000AF909F908F9008950F931F93CF93DF93BE
:1010E000EC01E881F981DB0114964D915C91159733
:1010F0006D917C910280F381E02D09958C016DEC5E
:1011000071E0CE010E94C807800F911FDF91CF913F
:101110001F910F9108951F920F920FB60F921124F5
:101120002F933F934F935F936F937F938F939F93EF
:10113000AF93BF93EF93FF938CE095E00E94190368
:10114000FF91EF91BF91AF919F918F917F916F919F
:101150005F914F913F912F910F900FBE0F901F9075
:1011600018951F920F920FB60F9211242F938F9301
:101170009F93EF93FF93E0911C05F0911D058081F3
:10118000E0912205F091230582FD12C090818091AB
:1011900025058F5F8F7320912605821751F0E0910E
:1011A0002505F0E0E45FFA4F958F8093250501C097
:1011B0008081FF91EF919F918F912F910F900FBEA2
:1011C0000F901F901895FC018485958597FD0BC0A5
:1011D0009FB7F89482E08093E9008091F2009FBF6E
:1011E00090E0019608959FB7F89482E08093E9001B
:1011F0008091F2009FBF90E0089590E0FC0131974C
:10120000EF30F105B0F5EA5AFF4F0C94EA258091D2
:1012100080008F7703C0809180008F7D8093800055
:10122000089580918000877FF9CF84B58F7702C0C1
:1012300084B58F7D84BD0895809190008F7707C01D
:10124000809190008F7D03C080919000877F809374
:10125000900008958091C0008F7703C08091C000F6
:101260008F7D8093C00008958091C200877F809316
:10127000C20008953FB7F89480919E0490919F0416
:10128000A091A004B091A10426B5A89B05C02F3F52
:1012900019F00196A11DB11D3FBFBA2FA92F982F9C
:1012A0008827820F911DA11DB11DBC01CD0142E017
:1012B000660F771F881F991F4A95D1F708950895E3
:1012C0000895FB012785FC012787FB012685FC018A
:1012D00026870895AF92BF92CF92DF92EF92FF924E
:1012E0000F931F93CF93DF9300D0CDB7DEB7FC01F0
:1012F00087858823B1F05A019B018CE68983868516
:101300008A83C12CD12CE12CF12C8A0142E050E0DF
:10131000BE016F5F7F4F848595850E94BD1BC5010F
:1013200002C080E090E00F900F90DF91CF911F916D
:101330000F91FF90EF90DF90CF90BF90AF90089506
:101340000F931F93CF93DF93EC018B0141E050E0AB
:1013500060ED71E08F8598890E94CC12F80144817C
:101360005581608171818F859889DF91CF911F911F
:101370000F910C94CC12AF92BF92CF92DF92EF926A
:10138000FF920F931F93CF93DF93CDB7DEB72A97CA
:101390000FB6F894DEBF0FBECDBF5C018EE48F8325
:1013A000F50186819781988789871A8219821C8224
:1013B0001B821E821D826CE372E0CE0101960E94A8
:1013C0006413F5018185811106C064E372E0CE01EA
:1013D00001960E9464130D811E8129813A81CC24DB
:1013E000C394D12CCE010A967C0143E050E0BE01AB
:1013F000695F7F4FF501848195810E94BD1B81E06B
:101400009A85913009F080E0F5018087CE01019640
:101410000E948C132A960FB6F894DEBF0FBECDBF84
:10142000DF91CF911F910F91FF90EF90DF90CF90C0
:10143000BF90AF900895EF92FF920F931F93CF93B9
:10144000DF93CDB7DEB728970FB6F894DEBF0FBE97
:10145000CDBF7C018B016FEC71E0CE0101964F8313
:1014600058870E94CF1362E170E0CE0101960E947E
:10147000A512D80112966C91CE0101960E942613F6
:101480006EE2CE0101960E945113F8016381CE01F4
:1014900001960E9426136EE2CE0101960E9451131E
:1014A000D80114966C91CE0101960E9426136EE22B
:1014B000CE0101960E945113F8016581CE0101967B
:1014C0000E942613D701ED91FC9169817A810088F1
:1014D000F189E02D4F815885C70109958C01CE0116
:1014E00001960E948C13C80128960FB6F894DEBFAF
:1014F0000FBECDBFDF91CF911F910F91FF90EF9065
:101500000895CF93DF93282F30E0F901E255FD4F86
:101510008491F901E157FD4FD491F901E059FD4F54
:10152000C491CC2391F081110E94FD08EC2FF0E0D2
:10153000EE0FFF1FEE59FD4FA591B491EC91ED23F5
:1015400081E090E021F480E002C080E090E0DF9153
:10155000CF9108951F93CF93DF93282F30E0F901A7
:10156000E255FD4F8491F901E157FD4FD491F90106
:10157000E059FD4FC491CC23C9F0162F81110E9470
:10158000FD08EC2FF0E0EE0FFF1FEC5AFD4FA59188
:10159000B4918FB7F894111105C09C91ED2FE0958F
:1015A000E92302C0EC91ED2BEC938FBFDF91CF913B
:1015B0001F910895CF93DF93EC0160E08E810E942C
:1015C000AA0A61E08E810E94AA0A60E08E810E94D0
:1015D000AA0A8BE891E00197F1F7DF91CF91089586
:1015E000CF93DF9390E0FC01E157FD4F2491FC0184
:1015F000E059FD4F8491882361F190E0880F991F95
:10160000FC01EA5BFD4FC591D491FC01EC5AFD4F02
:10161000A591B491611109C09FB7F8948881209574
:1016200082238883EC912E230BC0623061F49FB734
:10163000F8943881822F809583238883EC912E2B18
:101640002C939FBF06C08FB7F894E8812E2B288378
:101650008FBFDF91CF9108958F929F92AF92BF92EB
:10166000CF92DF92EF92FF926B017C010E943A09C8
:101670004B015C01C114D104E104F104F1F00E94BA
:101680003A09DC01CB0188199909AA09BB09883EEE
:101690009340A105B10570F321E0C21AD108E10819
:1016A000F10888EE880E83E0981EA11CB11CC114BD
:1016B000D104E104F10419F7DDCFFF90EF90DF9042
:1016C000CF90BF90AF909F908F9008952FB7F894D0
:1016D00060919A0470919B0480919C0490919D0468
:1016E0002FBF08951F920F920FB60F9211242F93C0
:1016F0003F938F939F93AF93BF9380919A04909160
:101700009B04A0919C04B0919D043091990423E026
:10171000230F2D3720F40196A11DB11D05C026E829
:10172000230F0296A11DB11D2093990480939A0462
:1017300090939B04A0939C04B0939D0480919E047D
:1017400090919F04A091A004B091A1040196A11DC5
:10175000B11D80939E0490939F04A093A004B09326
:10176000A104BF91AF919F918F913F912F910F90C5
:101770000FBE0F901F901895CF93DF93EC018D81D2
:101780009E81DC01ED91FC910084F185E02D0995AD
:101790001816190654F48D819E81DC01ED91FC919F
:1017A0000284F385E02D0995EACFDF91CF9108956A
:1017B0008F929F92AF92BF92CF92DF92EF92FF9261
:1017C000CF93DF93EC016B010E94660B4B015C0130
:1017D000E12CF12C8D819E81DC01ED91FC91028444
:1017E000F385E02D099597FF0FC00E94660BDC0181
:1017F000CB0188199909AA09BB098C159D05AE056D
:10180000BF0540F38FEF9FEFDF91CF91FF90EF90F7
:10181000DF90CF90BF90AF909F908F900895FC0184
:10182000238134812627022E2295207F2025032E16
:10183000322F22952F700226269532272327220F3A
:10184000220F220F2025348323830895CF92DF9225
:10185000EF92FF920F931F936801790100E010E06F
:1018600020E030E00E94BD1B1F910F91FF90EF9090
:10187000DF90CF900895EF92FF920F931F93CF9335
:10188000DF9300D01F92CDB7DEB7FC012289211172
:1018900018C07C01138A8FE4898380E48B8386855A
:1018A0008A839F012C5E3F4F00E410E043E050E04C
:1018B000BE016F5F7F4F848595850E94260CF701DE
:1018C000828B0F900F900F90DF91CF911F910F910E
:1018D000FF90EF900895CF93DF93EC010E943B0CB3
:1018E0008A89882331F08B89C80FD11D8C8990E0BB
:1018F00002C08FEF9FEFDF91CF910895CF93DF93D9
:10190000EC010E943B0C8A89882359F081508A8B14
:101910008B8991E0980F9B8BC80FD11D8C8990E02B
:1019200002C08FEF9FEFDF91CF910895CF93DF93A8
:10193000EC010E943B0C8A8990E0DF91CF910895E1
:10194000AF92BF92CF92DF92EF92FF920F931F93CD
:10195000CF93DF93CDB7DEB727970FB6F894DEBFEE
:101960000FBECDBF5C019B0183E489835A834B8307
:10197000FB0101900020E9F731978F01061B170B3F
:10198000CC24C394D12CCE0107967C0143E050E0D7
:10199000BE016F5F7F4FD5011C968D919C911D9765
:1019A0000E94BD1B892BC1F18F81F501868793E6CB
:1019B0009C838D8301E010E09E012A5F3F4F42E04F
:1019C00050E0BE016C5F7F4FD5011C968D919C91BC
:1019D0001D970E94260C8E81882339F061E070E00B
:1019E00080E090E00E942C0BE5CF81E0F501878735
:1019F0000190F081E02D0688F789E02DC501099559
:101A000081110DC0D501ED91FC910488F589E02D7F
:101A1000C5010995F501168680E090E002C081E0DD
:101A200090E027960FB6F894DEBF0FBECDBFDF91D2
:101A3000CF911F910F91FF90EF90DF90CF90BF90CB
:101A4000AF900895EF92FF920F931F93CF93DF9380
:101A500000D01F92CDB7DEB7DC011F962C911F97E7
:101A6000222301F17C01ED91FC910084F185E02DB0
:101A70000995892BC9F48CE48983F70186858A83CB
:101A800001E010E09E012D5F3F4F42E050E0BE01BB
:101A90006F5F7F4F848595850E94260C81E09B8136
:101AA000913019F080E001C081E00F900F900F900D
:101AB000DF91CF911F910F91FF90EF900895EF92DA
:101AC000FF920F931F93CF93DF9300D01F92CDB758
:101AD000DEB7FC012089211118C07C01118A8BE43A
:101AE000898380E48B8386858A839F012E5E3F4FA6
:101AF00000E410E043E050E0BE016F5F7F4F84855B
:101B000095850E94260CF701808B0F900F900F9007
:101B1000DF91CF911F910F91FF90EF900895CF9398
:101B2000DF93EC010E945F0D8889882331F0898959
:101B3000C80FD11D8A8990E002C08FEF9FEFDF911F
:101B4000CF910895CF92DF92EF92FF920F931F9360
:101B5000CF93DF93EC016A017B0100E010E08889FC
:101B6000811106C0CE010E945F0D8889882399F0FB
:101B70000F5F1F4F898991E0980F998BFE01E80F45
:101B8000F11D8289F70181937F0188898150888BBB
:101B90000C151D0520F3C801DF91CF911F910F9106
:101BA000FF90EF90DF90CF900895CF93DF93EC01FB
:101BB0000E945F0D8889882359F08150888B89891C
:101BC00091E0980F998BC80FD11D8A8990E002C0CF
:101BD0008FEF9FEFDF91CF910895CF93DF93EC01CB
:101BE0000E945F0D888990E0DF91CF9108950F9357
:101BF0001F9300E010E020E030E00E94260C1F91CF
:101C00000F9108950F931F93CF93DF9300D0CDB71B
:101C1000DEB78C01FC018189882369F087E789831D
:101C200086858A8342E050E0BE016F5F7F4F8485E6
:101C300095850E94F70DF801118A0F900F90DF91A2
:101C4000CF911F910F910895AF92BF92CF92DF92E3
:101C5000EF92FF920F931F93CF93DF93CDB7DEB731
:101C600028970FB6F894DEBF0FBECDBF5C017B0195
:101C700062ED71E0CE0101960E94CF13C5010E9472
:101C8000020E86E090E00E94F0258C01BE016F5F9D
:101C90007F4F0E949113D50150961C930E931F976E
:101CA000CE0101960E948C136BED71E0CE0101967E
:101CB0000E94CF13BE016F5F7F4FC5010E94A00934
:101CC000CE0101960E948C13B701C5010E94A009A4
:101CD00082E58F83D5011F96ED91FC915097048189
:101CE00015812081318142E0C42ED12CFE01319634
:101CF0007F0141E050E0BE01695F7F4F1C968D91EE
:101D00009C911D970E94BD1B8A81D5011E968C93C4
:101D10001E971F960D911C9150970115110531F0DA
:101D2000C8010E948C13C8010E948526F501108A03
:101D300017868981811102C081E0818B32E7F32E01
:101D4000F982D5011E968C911E978A8301E010E0DE
:101D50009E01295F3F4F42E050E0BE016F5F7F4F21
:101D60001C968D919C911D970E94260C8F8181302D
:101D700039F464E670E080E090E00E942C0BE0CF44
:101D800087E58F83F5018685888702E010E09E0154
:101D90002F5F3F4F42E050E0BE01695F7F4F848577
:101DA00095850E94260C898190E0982F88272A81AA
:101DB000820F911D28960FB6F894DEBF0FBECDBFDF
:101DC000DF91CF911F910F91FF90EF90DF90CF9017
:101DD000BF90AF900895CF93DF9300D01F92CDB7FF
:101DE000DEB729E42983FC0126852A836B8343E03F
:101DF00050E0BE016F5F7F4F848595850E94F70D8F
:101E000081E090E00F900F900F90DF91CF910895B7
:101E1000CF93DF9300D0CDB7DEB722E629836A8364
:101E200042E050E0BE016F5F7F4FFC0184819581ED
:101E30000E94F70D81E090E00F900F90DF91CF911D
:101E40000895CF93DF9300D01F92CDB7DEB7FC018A
:101E50002785222389F08CE6898386858A836B8394
:101E600043E050E0BE016F5F7F4F848595850E94FF
:101E7000F70D81E090E002C080E090E00F900F90BD
:101E80000F90DF91CF9108950F931F93CF93DF931E
:101E900000D0CDB7DEB78C01FC018785882369F0BF
:101EA0008AE6898386858A8342E050E0BE016F5FBF
:101EB0007F4F848595850E94F70DF8011786108A5B
:101EC000118A0F900F90DF91CF911F910F9108957C
:101ED000CF92DF92EF92FF920F931F93CF93DF93F6
:101EE0007C016C0187E0C80ED11CC0E0D0E0062F59
:101EF00010E0B8010C2E02C0759567950A94E2F7C0
:101F00006170F60181916F010E94AA0A2196C43086
:101F1000D10579F7C701DF91CF911F910F91FF9004
:101F2000EF90DF90CF900C94DA0ACF92DF92EF928D
:101F3000FF920F931F93CF93DF93EC01F62E642F44
:101F40008C810E94AA0A8D818F3F19F060E00E9467
:101F5000AA0A8F850F2D10E084FF25C06E0187E04F
:101F6000C80ED11CE12CF12CB8010E2C02C07595C5
:101F700067950A94E2F76170F60181916F010E9402
:101F8000AA0AFFEFEF1AFF0A88E0E816F10461F7EA
:101F9000CE01DF91CF911F910F91FF90EF90DF90D5
:101FA000CF900C94DA0AB80184E0759567958A950C
:101FB000E1F7CE010E94680F6F2DCE01DF91CF9126
:101FC0001F910F91FF90EF90DF90CF900C94680FCE
:101FD00041E00E94950F81E090E0089540E00C946C
:101FE000950F0E94E727CF93DF93EC0188819981B9
:101FF000009711F00E948526198218821D821C828A
:102000001B821A82DF91CF9108954F925F926F9257
:102010007F928F929F92AF92BF92CF92DF92EF9278
:10202000FF92CF93DF93EC016A017B019A01AB0130
:10203000C701B6010E94C325882319F06EED71E037
:102040001AC046015701E894B7F82FEF3FEF4FE76A
:102050005FE7C501B4010E94C325811111C02FEFB4
:102060003FEF4FE75FE7C501B4010E945223181606
:102070003CF462EE71E0CE010E94C8077C0185C08D
:102080002FEF3FEF4FE75FE4C701B6010E94BE2587
:1020900018161CF466EE71E0EECF2FEF3FEF4FE71E
:1020A0005FECC701B6010E94522387FDF3CF20E009
:1020B00030E0A901C701B6010E94522387FF0AC080
:1020C0006DE2CE010E949D075C01F7FAF094F7F8EB
:1020D000F09402C0A12CB12C2AE037ED43EA5BE377
:1020E000C701B6010E94B1242B013C010E948F253B
:1020F0006B017C010E9457239B01AC01C301B2011B
:102100000E94B0242B013C012AE0B701A601CE01B8
:102110000E94DD077C01EA0CFB1C6EE2CE010E94EE
:102120009D07E80EF91E20E030E040E251E4C301D3
:10213000B2010E94B8232B013C010E948F254B0164
:10214000A12CB12C2AE0B501A401CE010E94DD072B
:10215000E80EF91EC501B4010E9457239B01AC0192
:10216000C301B2010E94B02420E030E040E251E41B
:102170000E94B8230E948F25AB0160E070E02AE046
:10218000CE010E94DD07E80EF91E6DEC71E0CE0174
:102190000E94C8078E0D9F1DDF91CF91FF90EF9099
:1021A000DF90CF90BF90AF909F908F907F906F9077
:1021B0005F904F900895CF92DF92EF92FF920F932E
:1021C0001F93CF93DF938C016B01770FEE08FF080D
:1021D000F7FE12C06DE20E949D07EC0144275527CF
:1021E000BA014C195D096E097F092AE0C8010E94F5
:1021F000DD07C80FD91F06C02AE0B701A6010E945B
:10220000DD07EC016DEC71E0C8010E94C8078C0F7E
:102210009D1FDF91CF911F910F91FF90EF90DF9065
:10222000CF900895EF92FF920F931F93CF93DF9378
:1022300061E08091C7050E94AA0A6AEF70E080E021
:1022400090E00E942C0B0E94660B0091CA05109131
:10225000CB052091CC053091CD0560177107820721
:10226000930740F41092CA051092CB051092CC054A
:102270001092CD052091CE05211115C00091CA05FF
:102280001091CB052091CC053091CD05DC01CB011F
:10229000801B910BA20BB30B803D9740A105B105AC
:1022A00010F481E07EC01092CE050E94660B609310
:1022B000CA057093CB058093CC059093CD05109201
:1022C000C5051092C4051092C3051092C205109264
:1022D000C10561E08091C7050E94F00A60E080912D
:1022E000C7050E94AA0A64E170E080E090E00E94C5
:1022F0002C0BF89461E08091C7050E94AA0A8BE933
:1023000090E00197F1F760E08091C7050E94F00A24
:1023100010E0C0E081E0D0E0E82EF12C8091C7050C
:102320000E94810A8E159F0519F4DF5FDF3FB1F728
:102330008091C7050E94810ADF3FC1F0C43098F048
:10234000C0FD11C0E12FE695E695E695F0E0EF536C
:10235000FA4F9081990F90832091C9052D1710F4A1
:10236000916090831F5FCF5FC535A9F678941832CE
:10237000B8F02091C50530E04091C1058091C205BB
:1023800090E0840F911D4091C305840F911D4091F1
:10239000C405840F911D99272817390709F481CFA7
:1023A00080E0DF91CF911F910F91FF90EF90089502
:1023B000FC018091A604811103C08FEF9FEF089567
:1023C0009FB7F89482E08093E9002091F20030E01A
:1023D0001216130614F421E030E02115310559F0EE
:1023E000289884E68093A5048091F10080838091F1
:1023F000F200882319F09FBFC90108958BE68093EE
:10240000E800F9CF2FB7F89483E08093E90090912A
:10241000E800892F807295FF04C09091F20080E45B
:10242000891B2FBF08958091AB0481110DC082E0FC
:102430008093A70484E08093A8041092AA041092C9
:10244000A90481E08093AB0487EA94E00895AF92F9
:10245000BF92CF92DF92EF92FF920F931F93CF9391
:10246000DF93DC01CD90DC901197C114D10409F405
:1024700042C01496CD91DC9115972097E1F18C0123
:1024800056017501BFEFAB1ABB0AF7018081082E18
:10249000000C990B0E943923892B99F72197CC0DB9
:1024A000DD1D8881082E000C990B0E943923892B91
:1024B00091F4AE014F5F5F4F4E195F09D801159639
:1024C0005C934E931497CE14DF0450F4B701C60109
:1024D0000E94EC2705C0CE15DF0558F32197E1CF08
:1024E000D801ED91FC91119714968D919C911597BF
:1024F000E80FF91F1082DF91CF911F910F91FF908C
:10250000EF90DF90CF90BF90AF900895FC012481B1
:102510003581232B31F421E061157105A1F0FB0118
:1025200008C0FC01808191816115710531F421E0C1
:10253000FC018081882339F005C00E94002821E039
:10254000892B09F020E0822F08950F931F93CF93DA
:10255000DF93EC0188819981009729F02A813B81E2
:102560002617370788F48B016F5F7F4F0E941D2766
:10257000009761F0998388831B830A832C813D81B6
:10258000232B11F4FC01108281E001C080E0DF9177
:10259000CF911F910F910895EF92FF920F931F9388
:1025A000CF93DF93FC01248135816115710511F40E
:1025B00080E019C041155105A9F07B01EC018A01A9
:1025C000020F131FB8010E94A512882389F32881E6
:1025D00039818C819D81B701820F931F0E94092848
:1025E0001D830C8381E0DF91CF911F910F91FF90AC
:1025F000EF900895CF93DF93EC016115710561F0C1
:10260000FB0101900020E9F73197AF01461B570B02
:102610000E94CC12811103C0CE010E94F30FCE01A3
:10262000DF91CF910895CF93DF93EC01FB014481BB
:102630005581608171810E94CC12811103C0CE014D
:102640000E94F30FCE01DF91CF910895EF92FF9298
:102650000F931F93CF93DF9300D000D0CDB7DEB799
:102660007C01862F4AE08E010F5F1F4FB80190E07A
:102670000E949920F80101900020E9F73197AF01FD
:10268000401B510BB801C7010E94CC120F900F9054
:102690000F900F90DF91CF911F910F91FF90EF90CE
:1026A0000895CF93DF9300D0CDB7DEB769831A8248
:1026B00041E050E0BE016F5F7F4F0E94CC120F904F
:1026C0000F90DF91CF910895EF92FF920F931F9398
:1026D000CF93DF93EC018B016115710551F0CB01B4
:1026E0000E9490207C01BC01CE010E94A5128111A4
:1026F00004C0CE010E94F30F07C0FD82EC82B80136
:10270000888199810E948920CE01DF91CF911F910C
:102710000F91FF90EF900895FC01808191810C94BE
:102720008526EF92FF920F931F93CF93DF93FC01C7
:1027300011821082138212821582148286179707E3
:1027400039F1DB010D911C9111970115110501F172
:10275000EC011496ED90FC901597B7010E94A5121C
:10276000811109C0CE01DF91CF911F910F91FF9090
:10277000EF900C94F30FFD82EC82B801888199816F
:10278000DF91CF911F910F91FF90EF900C9409284A
:10279000DF91CF911F910F91FF90EF900895EF92ED
:1027A000FF920F931F93CF93DF93EC01198218824E
:1027B0001B821A821D821C826115710521F18B0119
:1027C000FB0101900020E9F731977F01E61AF70A33
:1027D000B7010E94A512811109C0CE01DF91CF91EE
:1027E0001F910F91FF90EF900C94F30FFD82EC82FC
:1027F000B80188819981DF91CF911F910F91FF904E
:10280000EF900C940928DF91CF911F910F91FF90C9
:10281000EF9008950F931F93CF93DF93EC018B01FB
:102820006FEC71E00E94CF13C8010E946D0797FD05
:1028300008C08F32910529F0682FCE010E945113F4
:10284000F3CFCE01DF91CF911F910F910895FC013D
:1028500087850895089580E090E008950F931F9371
:10286000CF93DF938C01EB0161E089EA95E00E9450
:10287000EE0FEBE3FFE13197F1F7B80189EA95E05C
:102880000E94C807E091BC05E23010F4E15001C09D
:10289000E1E0F0E0E755FA4F8489682F606889EA43
:1028A00095E00E94EE0FBE0189EA95E0DF91CF919D
:1028B0001F910F910C94C807CF93DF93CAE0D0E02B
:1028C0006091B9056B7F6093B905686089EA95E00E
:1028D0000E94EE0F68EC70E080E090E00E942C0B0C
:1028E0006091B905862F84608093B9056C6089EA90
:1028F00095E00E94EE0F68EC70E080E090E00E94AE
:102900002C0B2197E9F6DF91CF910895CF92DF92BA
:10291000EF92FF920F931F93CF93DF93CDB7DEB764
:10292000CA55D1090FB6F894DEBF0FBECDBF6C01FA
:102930007B011C821B8288EE93E0A0E0B0E08D83D7
:102940009E83AF83B88707E311E01A8309838FEC76
:1029500095E09E878D871A8A1B8A1C8A64EC72E038
:10296000CE018B5A9F4F0E94CF13B601CE018B5AD6
:102970009F4F0E9413136DED72E00E94FA12B7018F
:102980000E94131361EE72E00E94FA1264EE75E089
:102990000E941313BC01CE0101960E94240ECE01A9
:1029A0008B5A9F4F0E948C131A830983CE01019684
:1029B0000E94020EC65ADF4F0FB6F894DEBF0FBE5C
:1029C000CDBFDF91CF911F910F91FF90EF90DF90DE
:1029D000CF900895EF92FF920F931F93CF93DF93C1
:1029E000CDB7DEB7C257D1090FB6F894DEBF0FBE20
:1029F000CDBF7C011C821B8288EE93E0A0E0B0E09A
:102A00008D839E83AF83B88707E311E01A83098320
:102A10008FEC95E09E878D871A8A1B8A1C8A64EE4C
:102A200072E0CE018B5A9F4F0E94CF136EED72E081
:102A3000CE0189599F4F0E94CF13B701CE0189590A
:102A40009F4F0E9413136FED72E00E94FA12BC01B7
:102A5000CE0183599F4F0E94911363EF72E0CE0124
:102A60008F599F4F0E94CF13BE016B5A7F4FCE01EB
:102A7000855A9F4F0E949113BE016F597F4FCE011F
:102A8000855A9F4F0E941313BE0163597F4F0E94C6
:102A90001313BC01CE0101960E94240ECE01855A6B
:102AA0009F4F0E948C13CE018F599F4F0E948C1311
:102AB000CE0183599F4F0E948C13CE0189599F4F9D
:102AC0000E948C13CE018B5A9F4F0E948C131A8345
:102AD0000983CE0101960E94020ECE58DF4F0FB639
:102AE000F894DEBF0FBECDBFDF91CF911F910F9144
:102AF000FF90EF9008954F925F926F927F928F9226
:102B00009F92AF92BF92CF92DF92EF92FF920F937C
:102B10001F93CF93DF93CDB7DEB7CA52D1400FB624
:102B2000F894DEBF0FBECDBF8BE6CB55DF4F888359
:102B3000C55AD04001E010E09E012F5F3F4F41E0B9
:102B400050E0BE016B557F4F8091DE059091DF050F
:102B50000E94260C892B09F567961FAE1EAE67975B
:102B600088EE93E0A0E0B0E06B968CAF9DAFAEAF87
:102B7000BFAF6B9789E491E065969FAF8EAF659785
:102B80008FEC95E0A1969FAF8EAFA197A2961FAE56
:102B9000A297A3961FAEA39722C0898167961FAE06
:102BA0001EAE679748EE53E060E070E06B964CAF66
:102BB0005DAF6EAF7FAF6B9729E431E065963FAFB5
:102BC0002EAF65972FEC35E0A1963FAF2EAFA197C2
:102BD000A2968FAFA29781E0A3968FAFA397A496FA
:102BE0001FAEA497A3968FADA397882309F442C183
:102BF00067968EAD9FAD6797C955DF4F99838883E0
:102C0000C75AD0406F968CAD9DADAEADBFAD6F973E
:102C1000C355DF4F88839983AA83BB83CD5AD040A5
:102C200089E491E0CB55DF4F99838883C55AD04022
:102C3000A1968EAD9FADA197CF54DF4F9983888326
:102C4000C15BD040A2968FADA297CD54DF4F888351
:102C5000C35BD04081E0CC54DF4F8883C45BD0405D
:102C6000A4968FADA497CB54DF4F8883C55BD0402B
:102C7000A5968FADA597CA54DF4F8883C65BD04019
:102C800080E4E3E5F0E0EC0FFD1F7296A5EAB0E00A
:102C9000AC0FBD1F529601900D928A95E1F788EC1A
:102CA00090E0A0E0B0E0C755DF4F88839983AA8306
:102CB000BB83C95AD040BE016B557F4FCE01875FA1
:102CC0009E4F0E940A14CE01875F9E4F0E942712DA
:102CD00067E073E0CE01875F9E4F0E9486128111EC
:102CE0000AC06CE073E0CE01875F9E4F0E9486129F
:102CF000882309F481C1BE01675F7E4FCE018D5FDD
:102D00009E4F0E949113C955DF4F88819981C75A00
:102D1000D0409C838B83C755DF4F88819981AA81DE
:102D2000BB81C95AD0408D839E83AF83B887C3557A
:102D3000DF4F88819981AA81BB81CD5AD040898794
:102D40009A87AB87BC8789E491E09A838983CF54C3
:102D5000DF4F88819981C15BD0409E878D87CD549C
:102D6000DF4F8881C35BD0408F87CC54DF4F888191
:102D7000C45BD040888BCB54DF4F8881C55BD0408B
:102D8000898BCA54DF4F8881C65BD0408A8B80E430
:102D9000E5EAF0E0EC0FFD1F7296DE01539601901C
:102DA0000D928A95E1F7BE016F5F7F4FCE01835090
:102DB0009F4F0E940A14CE0183509F4F0E942712FA
:102DC0006FEC71E0CE0183509F4F0E9486128111FB
:102DD000B5C1BE016F5F7F4FCE0189509F4F0E94EA
:102DE0000A146FEC71E0CE0189509F4F0E94861249
:102DF000811164C1C950DF4F88819981C75FD0407C
:102E0000009709F419C10E9462206B017C015601F0
:102E100060E173E0CE0183509F4F0E9486128111C2
:102E20000FC165E173E0CE0183509F4F0E9486126F
:102E3000811125C1BE0169507F4FCE0101960E94CC
:102E40006C08CE0189509F4F0E948C13CE01835095
:102E50009F4F0E948C13CE018D5F9E4F0E948C135A
:102E6000CE01875F9E4F0E948C13CE018D5A9F4FDB
:102E70000E94440F62E370E080E090E00E942C0B1F
:102E80000E94660B2B013C010E9412118823D1F194
:102E90008091C8058B3029F0A8F18551823048F027
:102EA00031C06091C30570E080E090E00E9457233C
:102EB00033C01091C305612F6F7770E080E090E020
:102EC0000E94592320E030E040E853E40E94B823F8
:102ED0006B017C018091C405682F70E080E090E078
:102EE0000E9459239B01AC01C701B6010E94B12485
:102EF00020E030E040E251E40E941D2517FF0CC0A5
:102F000090580AC06AE173E08CEB94E00E94C80715
:102F100060E070E080EC9FE76093B8047093B904C0
:102F20008093BA049093BB040E9412118823B1F1DC
:102F30008091C8058B3041F188F18551823070F560
:102F40006091C10570E080E090E00E94572320E08E
:102F500030E040E853E40E94B8236B017C0180918B
:102F6000C205682F70E080E090E00E9459239B0129
:102F7000AC01C701B6010E94B12420E030E040E27C
:102F800051E40E941D2507C06091C10570E080E0FA
:102F900090E00E9457236B017C010CC06AE173E052
:102FA0008CEB94E00E94C807C12CD12C80ECE82E59
:102FB0008FE7F82EC092B404D092B504E092B60424
:102FC000F092B7048090B8049090B904A090BA042D
:102FD000B090BB04A5019401C501B4010E94C325B2
:102FE0008111D1C0A7019601C701B6010E94C32576
:102FF000882309F4D1C0C7C06FE574E0CE01875FB4
:103000009E4F0E948612882341F06AEE75E0CE0141
:103010008B559F4F0E946C0823CF62EA73E0CE016C
:103020008B559F4F0E94A4076DEC71E0CE018B552C
:103030009F4F0E94C80714CFC12CD12C7601E7CE38
:1030400067E073E0CE018D5F9E4F0E948612882359
:1030500059F0D0921501C092140163E773E0CE01DC
:1030600001960E94A407DDCE67E473E0CE010196CD
:103070000E94A407D0921901C0921801D2CE67E035
:1030800073E0CE018D5F9E4F0E948612882359F017
:10309000B0921701A092160169E173E0CE0101968A
:1030A0000E94A407C7CE6EEE72E0CE0101960E9488
:1030B000A407B0921B01A0921A01BCCE60E173E09C
:1030C000CE0183509F4F0E9486128823B1F067E0A3
:1030D00073E0CE018D5F9E4F0E948612882329F0F7
:1030E000609114017091150104C0609118017091F4
:1030F0001901CE0101960E94DB1065E173E0CE015B
:1031000083509F4F0E948612882309F49ACE67E06D
:1031100073E0CE018D5F9E4F0E948612882329F0B6
:10312000609116017091170104C060911A017091AD
:103130001B01CE0101960E94DB1083CE6DED72E083
:10314000CE0101960E94A40767E073E0CE018D5F77
:103150009E4F0E948612882349F04091B8045091F6
:10316000B9046091BA047091BB0408C04091B404E2
:103170005091B5046091B6047091B704CE010196E8
:103180000E94051063CE67E674E081E794E00E9438
:103190002E140E945C1436C260911A0170911B01BA
:1031A000072E000C880B990B0E945923C95DDE4F36
:1031B000688379838A839B83C752D1409B01AC018A
:1031C000C701B6010E94522387FD37C060911801E4
:1031D00070911901072E000C880B990B0E9459233E
:1031E0009B01AC01C701B6010E94BE2518162CF147
:1031F0006091160170911701072E000C880B990B36
:103200000E9459239B01AC01C501B4010E945223C5
:1032100087FD13C06091140170911501072E000CF9
:10322000880B990B0E9459239B01AC01C501B40185
:103230000E94BE2518160CF081C00E945C1480917B
:10324000B30481119EC08091100190911101A09151
:103250001201B0911301A3019201281B390B4A0BF3
:103260005B0BDA01C90181389E4EA643B10508F413
:1032700088C081E08093B304409210015092110104
:103280006092120170921301C95DDE4F288139816D
:103290004A815B81C752D140C701B6010E945223C7
:1032A00087FF0AC064E273E0CE018B559F4F0E94F6
:1032B000CF1369E373E051C0609118017091190157
:1032C000072E000C880B990B0E9459239B01AC011F
:1032D000C701B6010E94BE25181654F46DE473E0D0
:1032E000CE018B559F4F0E94CF1363E673E035C02C
:1032F0006091160170911701072E000C880B990B35
:103300000E9459239B01AC01C501B4010E945223C4
:1033100087FF0AC068E773E0CE018B559F4F0E947C
:10332000CF1360E973E019C067EA73E0CE018B55F3
:103330009F4F0E94CF1360EC73E00FC08091B304E5
:103340008823F9F01092B30468ED73E0CE018B5539
:103350009F4F0E94CF136AEF73E0CE0101960E9447
:10336000CF13BE016B557F4FCE0101960E9486148C
:10337000CE0101960E948C13CE018B559F4F0E9467
:103380008C13FE01EB55FF4F119211921192119285
:1033900080E1DF01282F1D922A95E9F719821A8210
:1033A0001B821C82FE013596DF011D928A95E9F78A
:1033B000C090B404D090B504E090B604F090B70487
:1033C0006091B8047091B9048091BA049091BB04E3
:1033D000C350DF4F188219821A821B82CD5FD04002
:1033E000CF5FDE4F19821882C150D140C950DF4FE4
:1033F000188219821A821B82C75FD040C550DF4FE6
:1034000019821882CB5FD0408E0103501F4F20E0FD
:1034100043E00E9442200650110920E043E0C7012A
:10342000B6010E94422064E174E0CE018B559F4FAB
:103430000E94092860E274E0CE0101960E940928EA
:10344000BE0163507F4FCE018B559F4F0E94F527E1
:10345000B801CE0101960E94F52769E274E0CE0121
:103460008B559F4F0E94F5276BE274E0CE018B5580
:103470009F4F0E94F5276DE274E0CE0101960E94F5
:10348000F527BE016F5F7F4FCE018B559F4F0E9486
:103490002E1480910C0190910D01A0910E01B0911C
:1034A0000F01A3019201281B390B4A0B5B0BDA01B8
:1034B000C90180339547A105B10508F4A3C0C350E5
:1034C000DF4F188219821A821B82CD5FD040CF5FF6
:1034D000DE4F19821882C150D140C950DF4F188287
:1034E00019821A821B82C75FD040C550DF4F1982F4
:1034F0001882CB5FD0406091B8047091B90480917C
:10350000BA049091BB040A5F1F4F22E043E00E947F
:1035100042206091B4047091B5048091B6049091FA
:10352000B7040650110922E043E00E9442206BE8F4
:1035300072E0CE01855E9E4F0E94CF13B801CE018E
:103540008B5E9E4F0E94CF13BE0163507F4FCE0112
:10355000815F9E4F0E94CF136FE274E0CE018D5FBA
:103560009E4F0E94CF13BE016D5F7E4FCE01875FDD
:103570009E4F0E949113BE01615F7E4FCE01875F17
:103580009E4F0E9413136CE574E00E94FA12BE0174
:103590006B5E7E4F0E941313BE01655E7E4F0E94DC
:1035A0001313BC01CE018F5D9E4F0E949113CE017B
:1035B0008F5D9E4F0E94EA14CE018F5D9E4F0E9448
:1035C0008C13CE01875F9E4F0E948C13CE018D5FBE
:1035D0009E4F0E948C13CE01815F9E4F0E948C13E0
:1035E000CE018B5E9E4F0E948C13CE01855E9E4F56
:1035F0000E948C1340920C0150920D0160920E01BA
:1036000070920F01C65DDE4F0FB6F894DEBF0FBE9D
:10361000CDBFDF91CF911F910F91FF90EF90DF9081
:10362000CF90BF90AF909F908F907F906F905F9062
:103630004F900895EF92FF920F931F93CF93DF93D4
:10364000EC01623018F08F8588608F876B8B1C8A45
:1036500080E48D8B80E18E8B80E58F8B61E08C81A7
:103660000E94F00A8D818F3F19F061E00E94F00AFC
:1036700061E08E810E94F00A7E0187E0E80EF11C75
:1036800000E010E08F8584FD03C084E090E002C07C
:1036900088E090E0081719074CF461E0F701819188
:1036A0007F010E94F00A0F5F1F4FECCF8BE39DE07C
:1036B0000197F1F760E08C810E94AA0A60E08E8198
:1036C0000E94AA0A8D818F3F19F060E00E94AA0A29
:1036D0006F8564FD1DC063E0CE010E94680F0BE49E
:1036E00016E4C8010197F1F763E0CE010E94680F6C
:1036F000C8010197F1F763E0CE010E94680F83E5EE
:1037000092E00197F1F762E0CE010E94680F16C0C7
:103710006062CE010E94EE0F8BE496E40197F1F710
:103720006F856062CE010E94EE0F83E592E0019703
:10373000F1F76F856062CE010E94EE0F6F856062C7
:10374000CE010E94EE0F84E0888B6CE0CE010E94D7
:10375000EE0F61E0CE010E94EE0F8BE39FE1019737
:10376000F1F782E0898B66E0CE01DF91CF911F9166
:103770000F91FF90EF900C94EE0F2F923F924F928B
:103780005F926F927F928F929F92AF92BF92CF92F1
:10379000DF92EF92FF920F931F93CF93DF93CDB7FA
:1037A000DEB72B970FB6F894DEBF0FBECDBF9B8759
:1037B0008A875B011901FD82EC823A01600E711E5D
:1037C000872C7B82912C44244A94542C9B01240FF7
:1037D000351F3F832E839101200F311F39872887A2
:1037E000EA85FB858085981608F036C1AA85BB85D9
:1037F00014965C924E92139715968D919C91169704
:10380000DC01ED91FC910190F081E02D6FEF0995C5
:103810006FEF8A859B850E940F0CEA85FB85858169
:103820009681DC01ED91FC910190F081E02DAA855B
:10383000BB856C910995EA85FB856081CF010E946B
:103840000F0CAA85BB8515968D919C911697DC016E
:10385000ED91FC910190F081E02D682D09956B812F
:103860008A859B850E940F0CEA85FB858581968160
:10387000DC01ED91FC910190F081E02D662D099520
:10388000662D8A859B850E940F0C75012E813F81D4
:10389000E216F306B1F0EA85FB8585819681870102
:1038A000DC01ED91FC910190F081E02DD7016D914B
:1038B0007D010995F80160818A859B850E940F0C26
:1038C000E5CF7101AA85BB8515968D919C911697C0
:1038D00028853985E216F30691F08701DC01ED9128
:1038E000FC910190F081E02DD7016D917D0109954A
:1038F000F80160818A859B850E940F0CE3CFDC0173
:10390000ED91FC91AA85BB8514966C910190F08194
:10391000E02D0995EA85FB8585819681DC01ED9195
:10392000FC910190F081E02DAA85BB8513966C91E6
:10393000099564E670E08A859B850E94D80B8F3FCD
:10394000910509F07DC0EA85FB85548243826FEFC3
:10395000CF010E940F0C65E070E08A859B850E9474
:10396000D80BAA85BB856C91262F30E08217930770
:1039700009F066C0CD010E940F0C6AE070E08A85F4
:103980009B850E94D80B7C0197FD5AC0682F8A85C1
:103990009B850E940F0C6AE070E08A859B850E94DF
:1039A000D80B8C0197FD4CC0682F8A859B850E949F
:1039B0000F0CEA821982E981FA810E0F1F1FE12C98
:1039C000F12C65E070E08A859B85E016F106A9F090
:1039D000EC14FD0491F00E94D80B97FD0AC0EC8115
:1039E000FD81EE0DFF1D8083682F8A859B850E94D7
:1039F0000F0CFFEFEF1AFF0AE4CF0E94D80B7C01F7
:103A000097FD1EC065E070E08A859B850E94D80BFB
:103A100097FD16C0FE2CEE248E0D9F1DAA85BB853A
:103A200013962D913C9114972817390749F48C91DE
:103A30008F5F8C93C801C016D10680F4C6010EC0FA
:103A4000939464E670E080E090E00E942C0B8A85FD
:103A50009B850E94BC0BC4CE8FEF9FEF2B960FB6B9
:103A6000F894DEBF0FBECDBFDF91CF911F910F91B4
:103A7000FF90EF90DF90CF90BF90AF909F908F908E
:103A80007F906F905F904F903F902F90089584EEBD
:103A900095E00E948C138AEE95E00C948C13CF93E2
:103AA000DF93CDB7DEB7CE55D1090FB6F894DEBFA0
:103AB0000FBECDBF789484B5826084BD84B581602B
:103AC00084BD85B5826085BD85B5816085BD8091E9
:103AD0006E00816080936E00109281008091810061
:103AE0008260809381008091810081608093810059
:103AF000809180008160809380008091910082603D
:103B000080939100809191008160809391008091D9
:103B100090008160809390008091C10084608093C8
:103B2000C1008091C10082608093C1008091C1007A
:103B300081608093C1008091C30081608093C30045
:103B40008091C00082608093C0008091C20081603B
:103B50008093C20080917A00846080937A00809183
:103B60007A00826080937A0080917A0081608093ED
:103B70007A0080917A00806880937A001092A6047F
:103B80001092A4041092A3048091D70081608093C6
:103B9000D70080EA8093D80089B5806189BD89B556
:103BA000826089BD09B400FEFDCF61E070E080E075
:103BB00090E00E942C0B8091D8008F7C80618093D4
:103BC000D8008091E000807F8093E0008091E10048
:103BD0008E7E8093E1008DE08093E200559A209ADA
:103BE000EEEFFFE7859194918B3F9C4D19F481E0B6
:103BF0008093A20461E08DE00E94F00A61E08DE014
:103C00000E94AA0AE091D805F091D905A089B1894E
:103C100082E08C93A485B5851C92A685B78587E044
:103C20008C93108EA489B58986E08C93A289B38980
:103C30008C9180618C93A289B3898C9188608C93DC
:103C4000A289B3898C9180688C930288F389E02DD6
:103C500080818F7D80838091D6058111C8C081E0ED
:103C60008093D6058FEC95E00E94BC0B68EE73E064
:103C700080E090E00E942C0B8091D4059091D505B6
:103C8000DC01ED91FC910084F185E02D0995181679
:103C9000190644F385E0F82EEE24E39492E3D92E3E
:103CA000E9E2F1E0DE01AB5ABF4F8F2D01900D929A
:103CB0008A95E1F7E092D70545E050E0BE016B5AE6
:103CC0007F4F8FEC95E00E94F70D63E08091D40563
:103CD0009091D5050E949D076AEF70E080E090E02A
:103CE0000E942C0B6BED72E08091D4059091D5056C
:103CF0000E94A4076AEF70E080E090E00E942C0B25
:103D000069ED72E08091D4059091D5050E94A407D9
:103D100064EF71E080E090E00E942C0B6DEC72E0AB
:103D20008091D4059091D5050E94A40764EF71E0BD
:103D300080E090E00E942C0B8FEC95E00E94BC0B81
:103D4000EEE2F1E0DE0111968F2D01900D928A9541
:103D5000E1F7D092D70504E010E09E01255A3F4FCD
:103D600045E050E0BE016F5F7F4F8FEC95E00E9411
:103D7000260C8F3FBFEF9B0739F468EE73E080E0BD
:103D800090E00E942C0B8CCF6C962FAD6C9721117C
:103D9000FFCF049719F56D962FAD6D9730E0205346
:103DA000310984E6829FA001839F500D11246E96F5
:103DB0002FAD6E9730E0205331096AE0629FC00159
:103DC000639F900D1124840F951F6F962FAD6F97F1
:103DD00030E020533109820F931F02C084E690E047
:103DE0009093D1058093D00582E38093D7051091FD
:103DF0000B016AE070E080E090E00E942C0B111152
:103E000006C08FEF9FEF9093C9048093C80462E0CF
:103E100089EA95E00E941A1B6AEE71E0CE010196D4
:103E20000E94CF13CE0101960E94EA14CE010196A2
:103E30000E948C1368EC70E080E090E00E942C0BF4
:103E40006CEF71E0CE0101960E94CF13CE01019676
:103E50000E94EA14CE0101960E948C131C821B82E0
:103E600088EE93E0A0E0B0E08D839E83AF83B887B7
:103E700007E311E01A8309838FEC95E09E878D8715
:103E80001A8A1B8A1C8A6EE872E0CE018B5A9F4FF9
:103E90000E94CF13BE016B5A7F4FCE0101960E9444
:103EA000240ECE018B5A9F4F0E948C136AEA72E057
:103EB000CE018B5A9F4F0E94CF13BE016B5A7F4F8A
:103EC000CE0101960E94240ECE018B5A9F4F0E9474
:103ED0008C131A830983CE0101960E94020E8AED8B
:103EE00095E00E94BB0960E08DE00E94AA0A0E9452
:103EF0007B150E94A303FBCFCF93DF93E6EFF5E0A2
:103F000085EC91E091838083128213821482158262
:103F1000ECE0F5E01382128248EE53E060E070E0DE
:103F2000448355836683778329E631E03183208398
:103F30002DEC30E0358724872CEC30E0378726875E
:103F400028EC30E0318B208B29EC30E0338B228B56
:103F50002AEC30E0358B248B2EEC30E0378B268B2F
:103F6000118E128E138E148EACEBB4E013961C924D
:103F70001E92129714964D935D936D937C931797B1
:103F80002BE731E011963C932E932FEF3FEF1D96D8
:103F90003C932E931C97ACEFB5E011969C938E93B7
:103FA00012961C92129713961C92139714961C92B9
:103FB000149715961C92A2E0B6E011969C938E93EE
:103FC00012961C92129713961C92139714961C9299
:103FD000149715961C92CFECD5E01882FE83ED83E2
:103FE0001F821886FA87E987E0EFF5E091838083E6
:103FF00012821382148215826EE774E08AEE95E0D5
:104000000E94CF1360E874E084EE95E00E94CF1325
:10401000EAEDF5E0138212828BEA91E091838083CE
:10402000D583C48383EB95E19783868310861186BD
:10403000E1ECF5E089E086838BE0878396E090876A
:1040400091E09587E9EAF5E0138212822FE931E0E9
:10405000318320839CE094839FEF9583868385E062
:10406000878384E0808783E0818782E0828713866C
:10407000148615861686178661E0CF01DF91CF91F1
:104080000C941A1BEF920F931F93CF93DF93E801C9
:1040900047FD02C034E001C034E1E42F440FFF0BC0
:1040A000F7FF03C0F195E195F109E32E022F2E2FC2
:1040B000AE010E94D320CE01DF91CF911F910F91CD
:1040C000EF9008951F93FC0199278827BC01E8947D
:1040D00011911032E9F3193010F01E30C8F31B3281
:1040E00051F01D3249F4689406C00E94A420610F6B
:1040F000711D811D911D119110531A30B0F33EF4C2
:1041000090958095709561957F4F8F4F9F4F1F9130
:104110000895FB01DC0105900D920020E1F7089560
:10412000FC0105900020E9F7809590958E0F9F1F68
:104130000895BB274A3031F4992322F4BDE29095CB
:1041400081959F4F0C94BA20592F482F372F262F37
:10415000660F771F881F991F660F771F881F991F8B
:10416000620F731F841F951F660F771F881F991F8B
:104170000895BB27FB015527AA27880F991FAA1F5F
:10418000A41710F0A41B83955051B9F7A05DAA3372
:1041900008F0A95DA193009779F7B111B19311923D
:1041A000CB010C9442234F925F926F927F929F9229
:1041B000AF92BF92CF92DF92EF92FF920F931F9335
:1041C000CF93DF93CDB7DEB729970FB6F894DEBF54
:1041D0000FBECDBF6A01122FB02E2BE3201720F0A7
:1041E000FF24F394F00E02C0BCE3FB2E0F2D27E05A
:1041F000AE014F5F5F4F0E946122AC018981982F11
:104200009970913031F0E1FC06C0E0FE06C090E20A
:1042100005C09DE203C09BE201C090E0EE2DE0717D
:1042200083FF3CC0911102C083E001C084E081178C
:1042300018F4212F281B01C020E0E1110BC0F6016A
:10424000822F30E2882319F031938150FBCFC20EC8
:10425000D11C20E0992329F0D6019C93F6013196D8
:104260006F01C6010396E2FE0AC03EE4D6013C930C
:1042700041E411964C93119712963C9306C03EE68A
:10428000F601308341E641833283FC01322F40E264
:10429000332309F442C041933150FACF82FF44C026
:1042A000911102C083E001C084E0811718F4212F2E
:1042B000281B01C020E0E1110BC0F601822F30E283
:1042C000882319F031938150FBCFC20ED11C20E01E
:1042D000992329F0D6019C93F60131966F01C6010E
:1042E0000396E2FE0BC039E4D6013C933EE41196FE
:1042F0003C93119736E412963C9307C039E6F601D9
:1043000030833EE6318336E63283FC01322F40E2D1
:10431000332319F041933150FBCFFC01E20FF11D23
:1043200010828EEF9FEFB7C0F1E0911101C0F0E075
:104330006F2F70E01416150624F49A012F5F3F4F7B
:1043400002C021E030E0260F371FBB2029F06B2D83
:1043500070E06F5F7F4F02C060E070E0260F371F94
:10436000612F70E0261737071CF4121B212F01C0A4
:1043700020E03E2D387159F4D601322F60E233230C
:1043800019F06D933150FBCFC20ED11C20E0FF23FA
:1043900031F0D6019C93B6016F5F7F4F6B01E11145
:1043A0000BC0F601922F30E3992319F0319391500D
:1043B000FBCFC20ED11C20E09F2D940F3A81782FA5
:1043C0007071A72E84FF03C0313309F49150191680
:1043D00024F4993018F098E001C091E0E42F852F83
:1043E00057FF02C0E0E080E06E2F782FE0E0F0E0C1
:1043F000AEE29A2E3A01691A71082A01461A570A42
:104400000B2D10E01195019511096F3F8FEF780783
:1044100029F4D6019C92C60101966C0146175707F4
:1044200084F0661677066CF47F01E40CF51CA1E0BD
:10443000B0E0AC0FBD1FEA0EFB1ED7011196BC9079
:1044400002C090E3B92E615071093196C601019600
:104450007C016017710724F0D601BC926C01D5CFA6
:104460006417750741F4363320F4353321F4A11075
:1044700002C081E3B82EF601B082F701822F90E2EC
:10448000882319F091938150FBCFF701E20FF11DC2
:10449000108280E090E029960FB6F894DEBF0FBE40
:1044A000CDBFDF91CF911F910F91FF90EF90DF90E3
:1044B000CF90BF90AF909F907F906F905F904F9004
:1044C0000895283008F027E03327DA01990F311DCD
:1044D00087FD916000966105710539F432602E5FA9
:1044E0003D9330E32A95E1F708959F3F30F08038FF
:1044F0007105610509F03C5F3C5F3D93913008F028
:104500008068911DDF93CF931F930F93FF92EF92DB
:10451000192F987F9695E92F96959695E90FFF2785
:10452000EC5DFE4F99273327EE24FF24A701E70116
:1045300005900894079428F4360FE71EF81E491FCB
:10454000511D660F771F881F991F0694A1F70590CC
:10455000079428F4E70EF81E491F561FC11D770F58
:10456000881F991F661F0694A1F70590079428F4E9
:10457000F80E491F561FC71FD11D880F991F661FB0
:10458000771F0694A1F70590079420F4490F561F52
:10459000C71FD81F990F661F771F881F0694A9F79A
:1045A00084911095177041F0D695C795579547950A
:1045B000F794E7941A95C1F7EAECF0E06894159047
:1045C000159135916591959105907FE27395E1186C
:1045D000F10A430B560BC90BD009C0F7E10CF11ED1
:1045E000431F561FC91FD01D7EF4703311F48A95E6
:1045F000E6CFE894015030F0080F0AF400270217C4
:1046000008F4202F2395022F7A3328F079E37D9345
:104610002A95E9F710C07D932A9589F60694979517
:104620006795379517951794E118F10A430B560BC8
:10463000C90BD00998F023957E9173957A3308F0D1
:1046400070E37C932013B8F77E9170617D9330F016
:10465000839571E37D9370E32A95E1F71124EF9040
:10466000FF900F911F91CF91DF91992787FD909532
:10467000089591110C942524803219F089508550A9
:10468000C8F70895DC01FC01672F71917723E1F7EA
:10469000329704C07C916D9370836291AE17BF070F
:1046A000C8F308950E94942308F481E00895E894E3
:1046B00009C097FB3EF490958095709561957F4F6A
:1046C0008F4F9F4F9923A9F0F92F96E9BB27939518
:1046D000F695879577956795B795F111F8CFFAF428
:1046E000BB0F11F460FF1BC06F5F7F4F8F4F9F4F59
:1046F00016C0882311F096E911C0772321F09EE8B7
:10470000872F762F05C0662371F096E8862F70E01C
:1047100060E02AF09A95660F771F881FDAF7880FF6
:104720009695879597F90895990F0008550FAA0B4C
:10473000E0E8FEEF16161706E807F907C0F01216B4
:104740001306E407F50798F0621B730B840B950BB7
:1047500039F40A2661F0232B242B252B21F408950C
:104760000A2609F4A140A6958FEF811D811D0895A9
:104770000E94CB230C943F240E94312438F00E94E5
:10478000382420F0952311F00C9428240C942E2426
:1047900011240C9473240E94502470F3959FC1F34C
:1047A000950F50E0551F629FF001729FBB27F00DDF
:1047B000B11D639FAA27F00DB11DAA1F649F662734
:1047C000B00DA11D661F829F2227B00DA11D621F83
:1047D000739FB00DA11D621F839FA00D611D221F3D
:1047E000749F3327A00D611D231F849F600D211D21
:1047F000822F762F6A2F11249F5750409AF0F1F0A4
:1048000088234AF0EE0FFF1FBB1F661F771F881F0C
:1048100091505040A9F79E3F510580F00C942824F8
:104820000C9473245F3FE4F3983ED4F38695779518
:104830006795B795F795E7959F5FC1F7FE2B880FB2
:10484000911D9695879597F908959927882708953A
:1048500097F99F6780E870E060E008959FEF80EC33
:10486000089500240A9416161706180609060895D6
:1048700000240A9412161306140605060895092E3C
:104880000394000C11F4882352F0BB0F40F4BF2BAB
:1048900011F460FF04C06F5F7F4F8F4F9F4F0895EB
:1048A00057FD9058440F551F59F05F3F71F04795E1
:1048B000880F97FB991F61F09F3F79F087950895C6
:1048C000121613061406551FF2CF4695F1DF08C0E5
:1048D000161617061806991FF1CF86957105610502
:1048E00008940895E894BB2766277727CB0197F9AA
:1048F00008952F923F924F925F926F927F928F9284
:104900009F92AF92BF92CF92DF92EF92FF920F935E
:104910001F93CF93DF93CDB7DEB7CA1BDB0B0FB668
:10492000F894DEBF0FBECDBF09942A883988488825
:104930005F846E847D848C849B84AA84B984C884BB
:10494000DF80EE80FD800C811B81AA81B981CE0FB2
:10495000D11D0FB6F894DEBF0FBECDBFED01089597
:104960005058BB27AA270E94C8240C943F240E94B9
:10497000312438F00E94382420F039F49F3F19F494
:1049800026F40C942E240EF4E095E7FB0C942824D6
:10499000E92F0E94502458F3BA176207730784075F
:1049A000950720F079F4A6F50C9472240EF4E095A6
:1049B0000B2EBA2FA02D0B01B90190010C01CA01D9
:1049C000A0011124FF27591B99F0593F50F4503E84
:1049D00068F11A16F040A22F232F342F4427585F76
:1049E000F3CF469537952795A795F0405395C9F78E
:1049F0007EF41F16BA0B620B730B840BBAF0915046
:104A0000A1F0FF0FBB1F661F771F881FC2F70EC0E4
:104A1000BA0F621F731F841F48F4879577956795B7
:104A2000B795F7959E3F08F0B0CF9395880F08F0A3
:104A30009927EE0F9795879508950E9431250C943C
:104A40003F240E94382458F00E94312440F029F479
:104A50005F3F29F00C94282451110C9473240C947A
:104A60002E240E94502468F39923B1F3552391F327
:104A7000951B550BBB27AA2762177307840738F0CD
:104A80009F5F5F4F220F331F441FAA1FA9F335D02A
:104A90000E2E3AF0E0E832D091505040E695001CDE
:104AA000CAF72BD0FE2F29D0660F771F881FBB1F98
:104AB000261737074807AB07B0E809F0BB0B802D76
:104AC000BF01FF2793585F4F3AF09E3F510578F0A2
:104AD0000C9428240C9473245F3FE4F3983ED4F3A1
:104AE000869577956795B795F7959F5FC9F7880F76
:104AF000911D9695879597F90895E1E0660F771FC8
:104B0000881FBB1F621773078407BA0720F0621B58
:104B1000730B840BBA0BEE1F88F7E09508950E9483
:104B2000582488F09F5798F0B92F9927B751B0F0C3
:104B3000E1F0660F771F881F991F1AF0BA95C9F721
:104B400014C0B13091F00E947224B1E008950C9429
:104B50007224672F782F8827B85F39F0B93FCCF3DC
:104B6000869577956795B395D9F73EF4909580959E
:104B7000709561957F4F8F4F9F4F08950E949423AA
:104B800008F48FEF08950E949423880B990B0895E1
:104B9000A1E21A2EAA1BBB1BFD010DC0AA1FBB1F41
:104BA000EE1FFF1FA217B307E407F50720F0A21BB3
:104BB000B30BE40BF50B661F771F881F991F1A9420
:104BC00069F760957095809590959B01AC01BD014A
:104BD000CF010895EE0FFF1F0590F491E02D099489
:104BE000CF93DF938230910510F482E090E0E09162
:104BF0000A06F0910B0620E030E0C0E0D0E03097EC
:104C000011F14081518148175907C0F048175907E1
:104C100061F482819381209719F09B838A832BC052
:104C200090930B0680930A0626C02115310519F0D2
:104C30004217530718F49A01BE01DF01EF01028009
:104C4000F381E02DDCCF2115310509F1281B390B4B
:104C50002430310590F412968D919C911397611533
:104C6000710521F0FB019383828304C090930B06AE
:104C700080930A06FD01329644C0FD01E20FF31F46
:104C800081939193225031092D933C933AC0209106
:104C9000080630910906232B41F420911E01309122
:104CA0001F01309309062093080620911C013091C2
:104CB0001D012115310541F42DB73EB7409120016A
:104CC00050912101241B350BE0910806F091090653
:104CD000E217F307A0F42E1B3F0B2817390778F0D3
:104CE000AC014E5F5F4F2417350748F04E0F5F1F32
:104CF00050930906409308068193919302C0E0E027
:104D0000F0E0CF01DF91CF9108950F931F93CF93E0
:104D1000DF93009709F48CC0FC0132971382128252
:104D200000910A0610910B060115110581F42081EE
:104D30003181820F931F20910806309109062817B0
:104D4000390779F5F0930906E093080671C0D80198
:104D500040E050E0AE17BF0750F412962D913C9101
:104D60001397AD012115310509F1D901F3CF9D014B
:104D7000DA013383228360817181860F971F821746
:104D8000930769F4EC0128813981260F371F2E5FC4
:104D90003F4F318320838A819B8193838283452B7C
:104DA00029F4F0930B06E0930A0642C01396FC9395
:104DB000EE931297ED01499159919E01240F351FF1
:104DC000E217F30771F480819181840F951F029699
:104DD00011969C938E938281938113969C938E93CC
:104DE0001297E0E0F0E0D80112968D919C91139714
:104DF000009719F0F8018C01F6CF8D919C919801E4
:104E00002E5F3F4F820F931F2091080630910906B5
:104E10002817390769F4309729F410920B0610927D
:104E20000A0602C013821282109309060093080634
:104E3000DF91CF911F910F910895A0E0B0E0E3E2E0
:104E4000F7E20C947D24EC01009721F4CB010E9441
:104E5000F025B8C0FC01E60FF71F9C012250310974
:104E6000E217F30708F4ACC0D9010D911C9111971A
:104E700006171707B0F00530110508F49FC0C801E8
:104E800004978617970708F499C002501109061B6A
:104E9000170B019311936D937C93CF010E9485268C
:104EA0008DC05B01A01AB10A4C01800E911EA09129
:104EB0000A06B0910B0640E050E0E12CF12C10976F
:104EC00009F44AC0A815B905D1F56D907C901197E9
:104ED000630182E0C80ED11CCA14DB0480F1A30177
:104EE0004A195B096A0182E0C80ED11C1296BC9077
:104EF00012971396AC91B5E0CB16D10440F0B28274
:104F0000A38351834083D9016D937C930AC00E5FC4
:104F10001F4FC301800F911FF90191838083EB2DF7
:104F2000FA2FE114F10431F0D7011396FC93EE93BC
:104F3000129744C0F0930B06E0930A063FC08D9190
:104F40009C9111974817590708F4AC017D011296FE
:104F50000D90BC91A02DB3CF8091080690910906C9
:104F600088159905E1F446175707C8F480911C018C
:104F700090911D01009741F48DB79EB7409120019B
:104F800050912101841B950BE817F907C8F4F093A1
:104F90000906E0930806F901718360830FC0CB0115
:104FA0000E94F0257C01009759F0A801BE010E94E3
:104FB000EC27CE010E948526C70104C0CE0102C0A5
:104FC00080E090E0CDB7DEB7EEE00C94992481E06C
:104FD00090E0F8940C941028FB01DC0102C00190D1
:104FE0000D9241505040D8F70895FB01DC010D901F
:104FF0000020E9F7119701900D920020E1F7089544
:10500000FB01DC018D91019080190110D9F3990BFE
:105010000895FB01DC0101900D920020E1F7089555
:1050200011E0CDEDD1E004C0FE010E94EA252196F9
:0A503000CE3DD107C9F7F894FFCF79
:10503A00FFFFFFFF00E1000000000000A015FFFFD6
:10504A008011C9FF1E00140050000A0000000C065F
:10505A00800000C18081000000585858585858589C
:10506A0031303000000000EB0EA7022B145F0996C6
:10507A000C7E0C6B0C00000000210F6A092B1460D7
:10508A0009ED0DD50D8F0D1B0AA00CA20D440F22A0
:10509A000D27146109000000003A03A702D2028119
:1050AA00030303E102F50200000000AD03000485DA
:1050BA0004C303E3088904A70400000000F10FA752
:1050CA00022B142A14F10FF10FF10F00000000E86F
:1050DA000FA7022B142A1400000000080FA7022BA6
:1050EA00142A14BB0900000000F10FA7022B142A8E
:1050FA001400000000260800000000F10F0D0A004D
:10510A00FE002F62696E2F617368002D63006E6165
:10511A006E00696E66006F76660044524F502054E6
:10512A0041424C452073656E736F7200435245418C
:10513A005445205441424C452073656E736F72206A
:10514A0028696420494E5445474552205052494DDA
:10515A00415259204B4559204155544F494E4352CB
:10516A00454D454E542C2074696D657374616D709C
:10517A0020444154452044454641554C542043550A
:10518A005252454E545F54494D455354414D502C4B
:10519A002074656D70205245414C204E4F54204E6C
:1051AA00554C4C2C2068756D696469747920524598
:1051BA00414C204E4F54204E554C4C293B006368BD
:1051CA006D6F6420373737202D52202F726F6F741E
:1051DA002F736372697074732F002F726F6F742F3D
:1051EA00736372697074732F696E69745F616C6C32
:1051FA002E7368002F726F6F742F736372697074E5
:10520A00732F656D61696C2E73682027002720272C
:10521A000027200073716C69746533202D6C696EE8
:10522A006520002F746D702F74656D705F73656EE5
:10523A00736F722E64620074656D700068756D001C
:10524A00616C74610062616A610052656164206622
:10525A0061696C0048756D696469747920697320A5
:10526A00746F6F206C6F7721004C4F572048554D53
:10527A00494449545920414C455254210048756DBE
:10528A00696469747920697320746F6F206869672B
:10529A00682100484947482048554D4944495459CE
:1052AA0020414C455254210054656D7065726174F9
:1052BA0075726520697320746F6F206C6F77210097
:1052CA004C4F572054454D50455241545552452054
:1052DA00414C455254210054656D70657261747574
:1052EA00726520697320746F6F206869676821008E
:1052FA00484947482054454D504552415455524516
:10530A0020414C455254210045766572797468698A
:10531A006E672069732066696E652E204B6565701D
:10532A0020776F726B696E672E0056616C756573B4
:10533A0020617265206261636B20746F206E6F72E8
:10534A006D616C0054656D7065726174757265008B
:10535A0048756D696469747900DF00430025004966
:10536A004E5345525420494E544F2073656E736F05
:10537A0072202874656D702C2068756D6964697473
:10538A0079292056414C5545532028002C20007677
:10539A00657273696F6E00436865636B2070696E2E
:1053AA000053656E736F72206572726F72003200FD
:1053BA0064617669646F6D666C40676D61696C2EB5
:0453CA00636F6D00A0
:1070000055C000006EC000006CC000006AC00000E7
:1070100068C0000066C0000064C0000062C00000DC
:1070200060C000005EC00000FCC400005AC0000048
:1070300058C0000056C0000054C0000052C00000FC
:1070400050C000005DC000004CC000004AC00000FD
:1070500048C0000046C0000044C0000042C000001C
:1070600040C000003EC000003CC000003AC000002C
:1070700038C0000036C0000034C0000032C000003C
:1070800030C000002EC000002CC000002AC000004C
:1070900028C0000026C0000024C0000022C000005C
:1070A00020C000001EC000001CC0000011241FBE34
:1070B000CFEFDAE0DEBFCDBF11E0A0E0B1E0E6E463
:1070C000FFE702C005900D92A63AB107D9F711E08B
:1070D000A6EAB1E001C01D92AF3BB107E1F74FD383
:1070E00030C78ECFF89410926F001092810081E02B
:1070F00085BF15BE47985D9A289A0C9400000895A4
:107100001F920F920FB60F9211242F938F939F937C
:10711000EF93FF9310928500109284008091A60156
:107120009091A701009741F001979093A701809358
:10713000A601892B09F45D9A8091A8019091A9017B
:10714000009741F001979093A9018093A801892BA2
:1071500009F4289A8091AC019091AD010196909329
:10716000AD018093AC01E0E0F0E0859194918F5FF8
:107170009F4F49F08091AA019091AB0101969093A5
:10718000AB018093AA01FF91EF919F918F912F9175
:107190000F900FBE0F901F90189584E08093E90028
:1071A0000DC08091E8008B778093E80003C08EB318
:1071B000882351F08091E80082FFF9CF8091E800A8
:1071C00085FFEFCF8091F1000895982F83E08093A1
:1071D000E9008091E80085FD0DC08091E8008E7780
:1071E0008093E80003C08EB3882369F08091E800A3
:1071F00080FFF9CF9093F1005D9884E690E0909342
:10720000A7018093A60108954F925F926F927F929B
:107210008F929F92AF92BF92CF92DF92EF92FF92A6
:107220000F931F93CF93DF9384E08093E9008091C5
:10723000E80082FF57C2289884E690E09093A90165
:107240008093A801AADF182F853481F48CE49DE196
:107250009093AB018093AA0107B600FCFDCFF9998A
:10726000FECF81E180935700E89503C0843519F47F
:1072700094DF8DE00DC28C34E1F38035D1F3843797
:1072800021F484E4A2DF80E003C2813611F489E5B1
:10729000FFC18134B1F481DF182F7FDF90E0880FC8
:1072A000991FAA2797FDA095BA2F312F330F20E001
:1072B000442737FD4095542F822B932BA42BB52BBD
:1072C000B8C1803711F483E5E3C1833549F4C0E0E8
:1072D000D1E089917ADF21E0C730D207D1F7D9C157
:1072E000863521F481E371DF80E3D2C1833731F445
:1072F00087E86BDF85E969DF8EE1CAC18536B9F4BD
:10730000E0E0F0E093E085E090935700E89507B661
:1073100000FCFDCF80935700E89507B600FCFDCF39
:10732000E058FF4FA0E7E030FA0771F7A2CF8237AD
:1073300039F4E1E0F0E089E0809357008491A8C13E
:10734000863439F4E0E0F0E089E0809357008491DE
:107350009FC18E3439F4E3E0F0E089E08093570078
:10736000849196C1813539F4E2E0F0E089E08093C0
:10737000570084918DC1823631F489E526DF80E0A3
:1073800024DF80E885C1823419F0873609F0E5C032
:107390001092AB011092AA0100DF082FFEDEF82E3A
:1073A000FCDE682E8554823008F071C1902F80E099
:1073B000CF2DD0E0C82BD92B10926F00173609F0D3
:1073C0004BC081E180935700E895DD24CC24C39421
:1073D0003FC0E090AF01F090B0010091B101109179
:1073E000B201B6E46B16D9F4ED2DF0E0EE29FF29D9
:1073F000E4918E2FEADEDD2081F082E090E0A0E0D3
:10740000B0E0E80EF91E0A1F1B1FE092AF01F092D8
:10741000B0010093B1011093B201DC2418C0D8016F
:10742000C701B695A7959795879575D5CEDE82E06D
:1074300090E0A0E0B0E0E80EF91E0A1F1B1FE092EA
:10744000AF01F092B0010093B1011093B201219706
:10745000209709F0BECF7DC08090AF019090B00121
:10746000A090B101B090B20196E4691609F05DC038
:1074700083E0F40180935700E89507B600FCFDCF48
:1074800054C0F6E46F1661F5772031F1E090AF015A
:10749000F090B0010091B1011091B2017EDED82EC2
:1074A000CC24852D90E08C299D29F7010C01409278
:1074B0005700E895112482E090E0A0E0B0E0E80EEB
:1074C000F91E0A1F1B1FE092AF01F092B00100935A
:1074D000B1011093B20102C060DE582E742423C0A3
:1074E000E090AF01F090B0010091B1011091B201B4
:1074F00016950795F794E79450DE682FC70113D5CA
:107500008091AF019091B001A091B101B091B20111
:107510000296A11DB11D8093AF019093B001A0937D
:10752000B101B093B201219704C0552477244424BB
:107530004394209709F0A5CF96E4691641F485E0BD
:10754000F40180935700E89507B600FCFDCF8DE06D
:107550003CDE82E080936F009CC0833471F4009124
:10756000AF011091B00119DE90E021E0F8010C01AB
:1075700020935700E89511247CCE833619F5E090CE
:10758000AF01F090B0010091B1011091B20105DEA0
:10759000F701E16090E021E00C0120935700E895AD
:1075A000112482E090E0A0E0B0E0E80EF91E0A1F8E
:1075B0001B1FE092AF01F092B0010093B101109354
:1075C000B20157CE8D3661F4E091AF01F091B00178
:1075D00085E080935700E89507B600FCFDCF49CEC3
:1075E000823551F4E091AF01F091B0010591149111
:1075F000812FEBDD802F4CC0843421F5E090AF016A
:10760000F090B0010091B1011091B201169507956B
:10761000F794E794C2DD682FC70185D48091AF014C
:107620009091B001A091B101B091B2010296A11D5B
:10763000B11D8093AF019093B001A093B101B093BD
:10764000B20117CE843609F5E090AF01F090B00199
:107650000091B1011091B201D801C701B695A7956B
:107660009795879558D4B1DD82E090E0A0E0B0E036
:10767000E80EF91E0A1F1B1FE092AF01F092B00145
:107680000093B1011093B20104C08B3111F08FE36C
:107690009CDD83E08093E9009091E8008091E80010
:1076A0008E778093E80095FF04C010C08EB38823C6
:1076B000C9F08091E80080FFF9CF8091E8008E77D3
:1076C0008093E80003C08EB3882361F08091E800C6
:1076D00080FFF9CF84E08093E9008091E8008B7708
:1076E0008093E800DF91CF911F910F91FF90EF9071
:1076F000DF90CF90BF90AF909F908F907F906F90D2
:107700005F904F9008959091B701892F8F778132C4
